:020000040800F2
:1000000000040020CF010008DD010008DF01000826
:10001000E1010008E3010008E5010008000000001C
:10002000000000000000000000000000E7010008E0
:10003000E901000800000000EB010008ED010008E4
:10004000EF010008EF010008EF010008EF010008D0
:10005000EF010008EF010008EF010008EF010008C0
:10006000EF010008EF010008EF010008EF010008B0
:10007000EF010008EF010008EF010008EF010008A0
:10008000EF010008EF010008EF010008EF01000890
:10009000EF010008EF010008EF010008EF01000880
:1000A000EF010008EF010008EF010008EF01000870
:1000B000EF010008EF010008EF010008EF01000860
:1000C000EF010008EF010008EF010008EF01000850
:1000D000EF010008EF010008EF010008EF01000840
:1000E000EF010008EF010008EF010008EF01000830
:1000F000EF010008EF010008EF010008EF01000820
:10010000EF010008EF010008EF010008EF0100080F
:10011000EF010008EF010008EF010008EF010008FF
:10012000EF010008EF010008EF010008EF010008EF
:1001300000F002F800F03AF80AA090E8000C8244BF
:100140008344AAF10107DA4501D100F02FF8AFF29C
:10015000090EBAE80F0013F0010F18BFFB1A43F0A5
:100160000103184788030000A8030000103A24BFC9
:1001700078C878C1FAD8520724BF30C830C144BF0C
:1001800004680C607047000000230024002500264E
:10019000103A28BF78C1FBD8520728BF30C148BFEA
:1001A0000B6070471FB51FBD10B510BD00F03FF9C3
:1001B0001146FFF7F7FF00F039F800F05DF903B4DE
:1001C000FFF7F2FF03BC00F065F9000070470B4831
:1001D00080470B4981F308880A480047FEE7FEE79D
:1001E000FEE7FEE7FEE7FEE7FEE7FEE7FEE7FEE7E7
:1001F00005480649044A064B70470000CD01000837
:10020000A80A002031010008A8080020A80A002040
:10021000A80800200021114800F0E2F80F4800F083
:10022000E3F8FBE70D4800F0C9F8FBE708B5AFF2CB
:100230001B000B4A0090FF23012102F5FF6000F034
:1002400064F8AFF21F00074A0090FF23022102F575
:10025000826000F05AF800F096F8FEE700000020F7
:10026000100000200C0400200022C26002610A6815
:10027000002A02D1086005E00A46D1680029FBD1B6
:10028000D06002614B490868401C08607047D0E9A3
:100290000323002B01D0DA6000E00A60C16809B1D5
:1002A00002690A610021C160016142480168491E7A
:1002B00001607047002150F8212012B150F8210050
:1002C0007047491C0529F6DB0020704710B5394CF2
:1002D000394B6068002809D04168022906D1012104
:1002E0004160816803EB8101FFF7BEFF3248FFF7F1
:1002F000E1FF6060002807D0816803EB8101FFF710
:10030000C6FF61680220486010BD30B50446039DF9
:1003100002EB83003C384FF08072826345636FF0DC
:10032000020202634FF01232C26203228262022290
:100330004262012202620023C3614FF011358561E0
:100340004FF0103545614FF0093505614FF0083524
:10035000C5604FF0073585604FF0063545604FF0BA
:10036000053540F804594FF004350560206062609F
:10037000A160E3602361104800EB81012046FFF794
:1003800073FF204630BD10B50B48FFF793FF094CB3
:10039000606000280CD0084A816802EB8101FFF7F9
:1003A00076FF616802204860BDE8104000F07AB82E
:1003B00010BD000008000020300800200146086839
:1003C000401C08604868002809D0C2684A600121C2
:1003D0004160134A816802EB8101FFF745BF704716
:1003E000016000214160704770B504462068002814
:1003F00003D0401E2060012070BD0A4D084A2868C5
:10040000816802EB8101FFF742FF28680521416006
:10041000211DFFF729FF00F045F8012070BD000005
:10042000300800200C000020704770477047754668
:1004300000F02CF8AE4605006946534620F0070050
:10044000854618B020B5FFF7D3FEBDE820404FF039
:1004500000064FF000074FF000084FF0000B21F0AE
:100460000701AC46ACE8C009ACE8C009ACE8C0097B
:10047000ACE8C0098D46704710B50446AFF3008064
:100480002046BDE81040FFF79ABE000000487047C4
:100490004408002001491820ABBEFEE726000200F8
:1004A000704700000F484FF0805101607047EFF334
:1004B0000980BFF36F8F0C4B1A6820E9F00F1060B2
:1004C00008B5BFF36F8FFFF701FFBDE8084019685B
:1004D0000868B0E8F00F80F30988BFF36F8F7047AA
:1004E0007047000004ED00E00C0000200C0500083F
:1004F00000000020100000006C0100081C0500082E
:1005000010000020980A0000880100080000000088
:0C051000000000000000000000000000DF
:04000005080001CF1F
:00000001FF
