:020000040800F2
:1000000000040020CF010008DD010008DF01000826
:10001000E1010008E3010008E5010008000000001C
:10002000000000000000000000000000E7010008E0
:10003000E901000800000000EB010008ED010008E4
:10004000EF010008EF010008EF010008EF010008D0
:10005000EF010008EF010008EF010008EF010008C0
:10006000EF010008EF010008EF010008EF010008B0
:10007000EF010008EF010008EF010008EF010008A0
:10008000EF010008EF010008EF010008EF01000890
:10009000EF010008EF010008EF010008EF01000880
:1000A000EF010008EF010008EF010008EF01000870
:1000B000EF010008EF010008EF010008EF01000860
:1000C000EF010008EF010008EF010008EF01000850
:1000D000EF010008EF010008EF010008EF01000840
:1000E000EF010008EF010008EF010008EF01000830
:1000F000EF010008EF010008EF010008EF01000820
:10010000EF010008EF010008EF010008EF0100080F
:10011000EF010008EF010008EF010008EF010008FF
:10012000EF010008EF010008EF010008EF010008EF
:1001300000F002F800F03AF80AA090E8000C8244BF
:100140008344AAF10107DA4501D100F02FF8AFF29C
:10015000090EBAE80F0013F0010F18BFFB1A43F0A5
:10016000010318476803000088030000103A24BF09
:1001700078C878C1FAD8520724BF30C830C144BF0C
:1001800004680C607047000000230024002500264E
:10019000103A28BF78C1FBD8520728BF30C148BFEA
:1001A0000B6070471FB51FBD10B510BD00F02FF9D3
:1001B0001146FFF7F7FF00F039F800F04DF903B4EE
:1001C000FFF7F2FF03BC00F055F9000070470B4841
:1001D00080470B4981F308880A480047FEE7FEE79D
:1001E000FEE7FEE7FEE7FEE7FEE7FEE7FEE7FEE7E7
:1001F00005480649044A064B70470000CD01000837
:10020000980A00203101000898080020980A002070
:10021000980800200021114800F0D5F80F4800F0A0
:10022000D6F8FBE70D4800F0BFF8FBE708B5AFF2E2
:100230001B000B4A0090FF23012102F5FF6000F034
:1002400061F8AFF21F00074A0090FF23022102F578
:10025000826000F057F800F091F8FEE700000020FF
:1002600014000020100400200022C26002610A680D
:10027000002A02D1086005E00A46D1680029FBD1B6
:10028000D060026147494868401C48607047D0E927
:100290000323002B01D0DA6000E00A60C16809B1D5
:1002A00002690A610021C16001613E484168491E3E
:1002B000416070470146002806D1704782688B680C
:1002C0009A4200D20146C0680028F7D1084670471C
:1002D00010B5344CA068002807D04168022904D129
:1002E000012141602146FFF7BFFF2068FFF7E2FFD1
:1002F000A060002805D02B49FFF7C9FFA1680220A4
:10030000486010BD30B50446039D02EB83003C38C5
:100310004FF08072826345636FF0020202634FF018
:100320001232C2620322826202224262012202620D
:100330000023C3614FF0113585614FF010354561E1
:100340004FF0093505614FF00835C5604FF00735AE
:1003500085604FF0063545604FF0053540F804598B
:100360004FF00435056020606260A160E3602361A6
:100370000C492046FFF778FF204630BD10B5094CE8
:100380002068FFF797FFA060002809D02146FFF7FB
:100390007EFFA16802204860BDE8104000F072B8FE
:1003A00010BD00000800002001460868401C0860DD
:1003B0004868002806D0C2684A600121416010499F
:1003C000FFF752BF7047016000214160704770B570
:1003D00004462068002803D0401E2060012070BD24
:1003E000084D07492868FFF752FF2868052141603A
:1003F000211DFFF739FF00F045F8012070BD000016
:1004000008000020100000207047704770477546B4
:1004100000F02CF8AE4605006946534620F0070070
:10042000854618B020B5FFF7E3FEBDE820404FF049
:1004300000064FF000074FF000084FF0000B21F0CE
:100440000701AC46ACE8C009ACE8C009ACE8C0099B
:10045000ACE8C0098D46704710B50446AFF3008084
:100460002046BDE81040FFF7AABE000000487047D4
:100470003408002001491820ABBEFEE72600020028
:10048000704700000F484FF0805101607047EFF354
:100490000980BFF36F8F0C4B1A6820E9F00F1060D2
:1004A00008B5BFF36F8FFFF713FFBDE80840196869
:1004B0000868B0E8F00F80F30988BFF36F8F7047CA
:1004C0007047000004ED00E010000020EC0400087C
:1004D00000000020140000006C0100080005000866
:1004E00014000020840A00008801000800000000B9
:1004F00000000000000000000000000000000000FC
:04000005080001CF1F
:00000001FF
